:020000040800F2
:100000007806002089010008510400089B030008BD
:10001000F903000843020008570E00080000000022
:10002000000000000000000000000000750700084C
:100030007B020008000000000506000849090008CE
:10004000A3010008A3010008A3010008A301000800
:10005000A3010008A3010008A3010008A3010008F0
:10006000A3010008A3010008A3010008A3010008E0
:10007000A3010008A3010008A3010008A3010008D0
:10008000A3010008A3010008A3010008A3010008C0
:10009000A3010008A3010008A3010008A3010008B0
:1000A000A3010008A3010008A3010008A3010008A0
:1000B000A3010008A3010008A3010008A301000890
:1000C000A3010008A3010008A3010008A301000880
:1000D000A3010008690C0008A3010008A30100089F
:1000E000A3010008A3010008A301000800F002F822
:1000F00000F03AF80AA090E8000C82448344AAF188
:100100000107DA4501D100F02FF8AFF2090EBAE885
:100110000F0013F0010F18BFFB1A43F0010318473B
:10012000B00D0000D00D0000103A24BF78C878C18F
:10013000FAD8520724BF30C830C144BF04680C60ED
:10014000704700000023002400250026103A28BF35
:1001500078C1FBD8520728BF30C148BF0B60704739
:100160001FB51FBD10B510BD00F031F81146FFF7E7
:10017000F7FF00F073FE00F04FF803B4FFF7F2FF53
:1001800003BC00F057F800000948804709480047C1
:10019000FEE7FEE7FEE7FEE7FEE7FEE7FEE7FEE737
:1001A000FEE7FEE704480549054A064B7047000094
:1001B0004D090008ED0000087800002078060020B6
:1001C000780200207802002070477047704775461B
:1001D00000F02CF8AE4605006946534620F00700B3
:1001E000854618B020B5FFF7DDFFBDE820404FF091
:1001F00000064FF000074FF000084FF0000B21F011
:100200000701AC46ACE8C009ACE8C009ACE8C009DD
:10021000ACE8C0098D46704710B50446AFF30080C6
:100220002046BDE81040FFF7A8BF00000048704717
:100230001800002001491820ABBEFEE7260002008E
:10024000704700BFFEE710B5002000F0A9F80020BD
:1002500000F064FA10BD10B5642000F0A1F86FF052
:10026000630000F05BFA10BD10B56FF0630000F0A2
:1002700097F8642000F052FA10BD70472DE9F04164
:10028000024600250026002000230024002791F8C4
:1002900003C00CF00F0591F803C00CF0100CBCF17A
:1002A000000F03D091F802C04CEA050591F800C098
:1002B000BCF1000F31D0146800202BE04FF0010C8E
:1002C0000CFA00F3B1F800C00CEA03069E4220D1FC
:1002D00083004FF00F0C0CFA03F7BC4305FA03FC44
:1002E0004CEA040491F803C0BCF1280F06D14FF08A
:1002F000010C0CFA00FCC2F814C00AE091F803C02B
:10030000BCF1480F05D14FF0010C0CFA00FCC2F80B
:1003100010C0401C0828D1D31460B1F800C0BCF153
:10032000FF0F34DD546800202EE000F1080C4FF080
:10033000010808FA0CF3B1F800C00CEA03069E426B
:1003400021D183004FF00F0C0CFA03F7BC4305FAE0
:1003500003FC4CEA040491F803C0BCF1280F05D15A
:1003600000F1080C08FA0CF8C2F8148091F803C0E8
:10037000BCF1480F07D100F1080C4FF0010808FA52
:100380000CF8C2F81080401C0828CED35460BDE899
:10039000F081416170470161704700BFFEE70000D6
:1003A00010B50446002C0BDD10211248FFF7F3FFB7
:1003B00020211048FFF7EDFFA0B200F01BF918E074
:1003C0005CB910210B48FFF7E6FF20210948FFF731
:1003D000E2FFA0B200F00EF90BE010210548FFF794
:1003E000D8FF20210348FFF7D6FF614288B200F012
:1003F00001F910BD0008014000BFFEE708B501216A
:10040000042000F011F910208DF80300F020ADF861
:10041000000003208DF8020069460348FFF72EFF15
:1004200000F05AF808BD00000008014010B56FF058
:100430003100FFF7B5FF6FF0310000F06FF910BD2C
:1004400010B53220FFF7ACFF322000F067F910BD85
:100450007047000070B5002100230F22C47804B358
:10046000154C246804F4E064C4F5E064210AC1F189
:100470000403CA40447804FA03F184781440214309
:1004800009010E4C0678A155047804F01F050124DB
:10049000AC4005786D11AD0005F1E025C5F80041CF
:1004A00009E0047804F01F050124AC40044D0678EF
:1004B000761145F8264070BD0CED00E000E400E048
:1004C00080E100E002490143024A116070470000E8
:1004D0000000FA050CED00E000B589B001210846E6
:1004E00000F092F80121022000F08EF80121042092
:1004F00000F09AF80121082000F096F818208DF8F5
:1005000023000320ADF820008DF8220008A932480E
:10051000FFF7B4FE18208DF823000220ADF820006C
:1005200003208DF8220008A92C48FFF7A7FE4FF002
:10053000804000F047FA2A4800F044FA0020ADF865
:100540001A00ADF816006320ADF818002320ADF8AE
:10055000140000208DF81C0005A94FF0804000F029
:1005600021FB0020ADF81A00ADF8160044F61F601C
:10057000ADF818004720ADF8140000208DF81C00DD
:1005800005A9174800F00EFB01A800F0FDFA602055
:10059000ADF804000020ADF80C000120ADF8060015
:1005A0000020ADF80A0001A94FF0804000F010FAD9
:1005B00001A94FF0804000F057FA01A9084800F067
:1005C000A5FA0121880700F0F1F90121044800F0A3
:1005D000EDF909B000BD000000080140000C014029
:1005E0000004004010B5044621464FF0804000F062
:1005F000D5FA10BD10B5044621464FF0804000F0FA
:10060000CFFA10BD7047000029B1064AD2690243F3
:10061000044BDA6104E0034AD2698243014BDA6198
:10062000704700000010024029B1064A9269024357
:10063000044B9A6104E0034A92698243014B9A6138
:10064000704700000010024030B500210022002455
:1006500000232D4D6D6805F00C0121B1042905D052
:10066000082923D105E0294D056022E0274D0560CA
:100670001FE0254D6D6805F47012234D6D6805F47B
:100680008034022505EB92421CB9214D554305608B
:100690000BE01D4D6D6805F400351DB11C4D554333
:1006A000056002E0194D5543056002E0174D0560F5
:1006B00000BF00BF144D6D6805F0F0010909154D2C
:1006C0006B5C0568DD4045600F4D6D6805F4E061C9
:1006D000090A104D6B5C4568DD4085600A4D6D6808
:1006E00005F46051C90A0B4D6B5C4568DD40C5607F
:1006F000054D6D6805F44041890B074D6B5CC5687D
:10070000B5FBF3F5056130BD0010024000127A0020
:1007100000093D00000000201000002010B5044634
:10072000002C0BDD40211248FFF735FE80211048D8
:10073000FFF72FFEA0B2FFF755FF18E05CB940218C
:100740000B48FFF728FE80210948FFF724FEA0B2DE
:10075000FFF748FF0BE040210548FFF71AFE802114
:100760000348FFF718FE614288B2FFF73BFF10BD58
:100770000008014070470000014800787047000001
:100780001400002005480078012804D10020034906
:100790000870012070470020FCE7000015000020D1
:1007A00000B587B001218803FFF73EFF0121042037
:1007B000FFF73AFF18208DF81B004FF40070ADF8DA
:1007C000180003208DF81A0006A92148FFF756FDEE
:1007D00048208DF81B004FF48060ADF8180003200E
:1007E0008DF81A0006A91A48FFF748FD4FF4165075
:1007F00002900020ADF814000C20ADF8120000208B
:10080000ADF81000ADF80E00ADF80C0002A91148CB
:1008100000F0B0FA012240F225510E4800F085FAAE
:100820004FF4A060FFF74EFE25208DF80400012054
:100830008DF807008DF805008DF8060001A8FFF778
:1008400009FE0121034800F03AFA07B000BD00009C
:10085000000801400038014010B500F001F810BD5B
:100860000CB50020019000903348006840F48030BF
:100870003149086000BF3048006800F40030009043
:100880000198401C0190009818B90198B0F5A06F2C
:10089000F1D12948006800F4003010B10120009027
:1008A00001E0002000900098012843D1234800680F
:1008B00040F01000214908600846006820F003005D
:1008C00008600846006840F0020008601A48406866
:1008D000194948600846406848600846406840F446
:1008E000806048600846406820F47C1048600846F4
:1008F000406840F4E81048600846006840F08070A6
:10090000086000BF0C48006800F000700028F9D0B3
:100910000948406820F003000749486008464068DD
:1009200040F00200486000BF0348406800F00C003F
:100930000828F9D10CBD0000001002400020024040
:1009400010B5FFF75BFD10BD7047000010B51348F0
:10095000006840F0010011490860084640681049ED
:1009600008400E494860084600680E4908400B4997
:1009700008600846006820F4802008600846406847
:1009800020F4FE0048604FF41F008860FFF764FF0A
:100990004FF000600449086010BD000000100240E4
:1009A0000000FFF8FFFFF6FE08ED00E021B102882D
:1009B00042F00102028004E002884FF6FE731A4002
:1009C0000280704701894FF6F8721140018170472B
:1009D00070B5002400220023058C4FF6FE763540CA
:1009E0000584028C8388048B4FF68F752C40B51ECE
:1009F0002C400D882C43751E2A400D892A434D88B2
:100A00002A43144DA8420BD0134DA84208D0134DD1
:100A1000A84205D0124DA84202D0124DA84213D1CF
:100A20004FF6F7752A404D892A434FF6FB752A4049
:100A30008D882A434FF6FF652B404FF6FF552B401C
:100A40008D892B43CD892B4383800483CD88858674
:100A5000028470BD002C0140003401400040014080
:100A6000004401400048014070B5002400220023EA
:100A7000058C4FF6EF7635400584028C8388048B15
:100A800048F6FF752C404FF6FF452C400D884FF679
:100A9000FF7606EA05252C434FF6DF752A400D89BF
:100AA00006EA05152A434D8806EA05152A43154D21
:100AB000A84202D0144DA8421DD14FF67F752A409E
:100AC0004D894FF6FF7606EA05152A434FF6BF75A6
:100AD0002A408D8806EA05152A434FF6FF352B403C
:100AE0004FF2FF752B408D8906EA85052B43CD8992
:100AF00006EA85052B4383800483CD88058702841D
:100B000070BD0000002C01400034014070B500228F
:100B100000230024058C4EF6FF7635400584038CB7
:100B20008488828B48F6FF752A404FF6FF452A409D
:100B30000D884FF6FF7606EA05252A434DF6FF7528
:100B40002B400D8906EA05352B434D8806EA05350D
:100B50002B430B4DA84202D00A4DA84208D14BF6B8
:100B6000FF752C408D894FF6FF7606EA85152C43DC
:100B700084808283CD88A0F84050038470BD00003B
:100B8000002C01400034014000210180418081801F
:100B9000C180018141818181C18170478186704717
:100BA00001877047002202881D4B98420ED01D4BD2
:100BB00098420BD0B0F1804F08D01B4B984205D023
:100BC0001A4B984202D01A4B984204D14FF68F73B9
:100BD0001A404B881A43174B984207D0164B98423D
:100BE00004D04FF6FF431A40CB881A4302808B880B
:100BF00083850B8803850A4B98420BD0094B98429A
:100C000008D00E4B984205D00D4B984202D00D4BA8
:100C1000984201D10B7A038601238382704700003A
:100C2000002C014000340140000400400008004056
:100C3000000C004000100040001400400040014043
:100C4000004401400048014010B50020FFF7A8FB18
:100C50005020FFF763FD10BD10B55020FFF7A0FB3B
:100C60000020FFF75BFD10BD10B540F2255109488B
:100C700000F031F801280CD1064800F0E7F80649E9
:100C8000087001200549087040F22551014800F024
:100C900007F810BD003801401400002015000020A6
:100CA00010B50022002340F66A14A14200D100BF13
:100CB0000A1201249440A3B2DC43048010BD21B188
:100CC000828942F40052828104E082894DF6FF73EA
:100CD0001A408281704770B5024600240023002527
:100CE000002040F66A16B14200D100BFC1F34215A0
:100CF00001F01F03012606FA03F3012D02D19689A4
:100D0000334006E0022D02D1168A334001E0968A74
:100D100033400C12012606FA04F41688344013B14D
:100D20000CB1012000E0002070BDF0B503460024A6
:100D300000260025002040F66A17B94200D100BF06
:100D40001846C1F3421401F01F06012707FA06F501
:100D5000012C01D10C3004E0022C01D1103000E054
:100D600014301AB107682F43076002E00768AF43E9
:100D70000760F0BD2DE9F04786B005460E46002419
:100D8000A24600BFA1460027B08900B100BF2F4690
:100D90002C8A4CF6FF700440F08804432C82AC8906
:100DA0004EF6F3100440B088318908437189084336
:100DB0000443AC81AC8A4FF6FF400440B089044341
:100DC000AC8201A8FFF740FC1F48874202D1DDF842
:100DD00010A001E0DDF80CA0A88900F4004040B1AB
:100DE0000AEBCA0000EB0A1031684900B0FBF1F8C9
:100DF00007E00AEBCA0000EB0A1031688900B0FB7B
:100E0000F1F86420B8FBF0F004012009642101FB33
:100E10001089A88900F4004040B1322000EBC900DD
:100E2000B0FBF1F000F00700044308E0322000EBD3
:100E300009106421B0FBF1F000F00F0004432C8195
:100E400006B0BDE8F0870000003801400146888800
:100E5000C0F30800704700BFFEE70000FFF770FD19
:100E6000FFF79EFC31E0FFF78DFC012803D1FFF76F
:100E700083FC1649087015480078402801D1FFF717
:100E8000DFFA12480078412801D1FFF7CFFA0F4866
:100E90000078422801D1FFF7D6F90C4800784328A2
:100EA00001D1FFF7D1FE09480078442801D1FFF7AE
:100EB000D3FE06480078452801D1FFF7CCF9034856
:100EC0000078462801D1FFF7CFF9CCE716000020C3
:100ED000F00E0008000000201800000028010008A3
:100EE000080F0008180000206006000044010008F8
:100EF00000000000010203040102030406070809C0
:080F00000204060800000000D5
:040000050800018965
:00000001FF
