:020000040800F2
:1000000090060020890100087D0A0008C507000845
:10001000250A00083D0400081F1800080000000021
:10002000000000000000000000000000E5100008D3
:100030007504000800000000750F0008FD1200089C
:10004000A3010008A3010008A3010008A301000800
:10005000A3010008A3010008A3010008A3010008F0
:10006000A3010008A3010008A3010008A3010008E0
:10007000A3010008A3010008A3010008A3010008D0
:10008000A3010008A3010008A3010008A3010008C0
:10009000A3010008A3010008A3010008A3010008B0
:1000A000A3010008A3010008A3010008A3010008A0
:1000B000A3010008A3010008A3010008A301000890
:1000C000A3010008A3010008A3010008A301000880
:1000D000A301000831160008A3010008A3010008CD
:1000E000A3010008A3010008A301000800F002F822
:1000F00000F03AF80AA090E8000C82448344AAF188
:100100000107DA4501D100F02FF8AFF2090EBAE885
:100110000F0013F0010F18BFFB1A43F0010318473B
:10012000FC2800001C290000103A24BF78C878C1C0
:10013000FAD8520724BF30C830C144BF04680C60ED
:10014000704700000023002400250026103A28BF35
:1001500078C1FBD8520728BF30C148BF0B60704739
:100160001FB51FBD10B510BD00F031F81146FFF7E7
:10017000F7FF01F057FB00F04FF803B4FFF7F2FF71
:1001800003BC00F057F800000948804709480047C1
:10019000FEE7FEE7FEE7FEE7FEE7FEE7FEE7FEE737
:1001A000FEE7FEE704480549054A064B7047000094
:1001B00001130008ED0000089000002090060020C8
:1001C00090020020900200207047704770477546EB
:1001D00000F02CF8AE4605006946534620F00700B3
:1001E000854618B020B5FFF7DDFFBDE820404FF091
:1001F00000064FF000074FF000084FF0000B21F011
:100200000701AC46ACE8C009ACE8C009ACE8C009DD
:10021000ACE8C0098D46704710B50446AFF30080C6
:100220002046BDE81040FFF7A8BF00000048704717
:100230003000002001491820ABBEFEE72600020076
:100240007047000010B500F011FC00F009FA0446F8
:1002500001F08AFF714908800323084602880121C2
:10026000022000F091FD6D48008819282EDA6B48B5
:10027000008800282AD000F0E3F8002000F0A8FF52
:100280004FF47A7000F0F7F800F0EAF9044601F054
:100290006BFF63490880032308460288012102207E
:1002A00000F072FD5E480088192810DD5D4800F0FE
:1002B0008FFF4FF47A7000F0DEF8322001F0AFF9D2
:1002C0004FF47A7000F0D7F800F0D0FBA5E0564864
:1002D00000F07EFF4FF47A7000F0CDF800F0C0F926
:1002E000044601F041FF5149088003230846028873
:1002F0000121022000F048FD4C480088192810DD3B
:10030000484800F065FF4FF47A7000F0B4F83220EE
:1003100001F07CF94FF47A7000F0ADF800F0A6FB24
:100320007BE0404800F054FF4FF47A7000F0A3F8EF
:1003300000F097F84FF47A7000F09DF800F080F824
:1003400000F08EF9044601F00FFF394908800323BD
:10035000084602880121022000F016FD344800887A
:10036000192802DD00F082FB57E0002000F030FF8A
:100370004FF47A7000F07FF800F072F9044601F053
:10038000F3FE2C490880032308460288012102203D
:1003900000F0FAFC27480088192810DD214800F0F9
:1003A00017FF4FF47A7000F066F8322001F037F949
:1003B0004FF47A7000F05FF800F058FB2DE01A4817
:1003C00000F006FF4FF47A7000F055F800F048F99D
:1003D000044601F0C9FE1849088003230846028834
:1003E0000121022000F0D0FC13480088192810DDFC
:1003F0000C4800F0EDFE4FF47A7000F03CF832202B
:1004000001F004F94FF47A7000F035F800F02EFB9B
:1004100003E000F015F800BFFEE710BD1800002053
:100420001A0000200000B442000034431C000020E9
:100430001E000020200000202200002000BFFEE758
:1004400010B5002000F0C0F9002000F01FFE10BD24
:1004500010B55A2000F0B8F96FF0590000F016FE00
:1004600010BD10B56FF0590000F0AEF95A2000F041
:100470000DFE10BD704700B5034603E04FF47A70DF
:1004800000F005F8181EA3F10103F7D100BD00EB41
:10049000C001C9004FF0E0225161002191610521A6
:1004A000116100BF4FF0E021096901F4803100299A
:1004B000F8D004214FF0E022116170472DE9F0419E
:1004C000024600250026002000230024002791F882
:1004D00003C00CF00F0591F803C00CF0100CBCF138
:1004E000000F03D091F802C04CEA050591F800C056
:1004F000BCF1000F31D0146800202BE04FF0010C4C
:100500000CFA00F3B1F800C00CEA03069E4220D1B9
:1005100083004FF00F0C0CFA03F7BC4305FA03FC01
:100520004CEA040491F803C0BCF1280F06D14FF047
:10053000010C0CFA00FCC2F814C00AE091F803C0E8
:10054000BCF1480F05D14FF0010C0CFA00FCC2F8C9
:1005500010C0401C0828D1D31460B1F800C0BCF111
:10056000FF0F34DD546800202EE000F1080C4FF03E
:10057000010808FA0CF3B1F800C00CEA03069E4229
:1005800021D183004FF00F0C0CFA03F7BC4305FA9E
:1005900003FC4CEA040491F803C0BCF1280F05D118
:1005A00000F1080C08FA0CF8C2F8148091F803C0A6
:1005B000BCF1480F07D100F1080C4FF0010808FA10
:1005C0000CF8C2F81080401C0828CED35460BDE857
:1005D000F0810246002093680B400BB1012000E03F
:1005E0000020704741617047016170470AB10161A5
:1005F00000E04161704700002DE9F04704460D46D8
:1006000016461F46DDE908894FF480611248FFF75E
:10061000E0FF20704FF400610F48FFF7DAFF287009
:100620004FF480510C48FFF7D4FF30704FF4005165
:100630000948FFF7CEFF38704FF480410748FFF7B5
:10064000C8FF88F800004FF400410448FFF7C1FFDD
:1006500089F80000BDE8F087000C0140001001405F
:100660002DE9FC5F4FF0000AD3464FF480412F483C
:10067000FFF7B8FF4FF480412C48FFF7B5FF282063
:10068000FFF705FF4FF480412848FFF7ABFF00BF9D
:100690004FF400412548FFF79CFF0028F8D00020C8
:1006A0002349088001212248243800F059FE00BF68
:1006B0004FF400411D48FFF78CFF0128F8D00021BE
:1006C0001B48243800F04CFE1948243800F054FE32
:1006D00000B2184908800846B0F9000001F0CAFAD3
:1006E0000022154BCDE9000101F0DCFA8046134AE7
:1006F000134B01F0D7FA064600224FF0804301F079
:1007000061F9044601F02CF982460020084908806E
:100710006420FFF7B0FE0021504601F0F1FC01D14A
:10072000DA4600E0D3465046BDE8FC9F000C01408D
:10073000242C0140160000200000F03F9CC420B093
:100740007268A13F1FB50121C80200F025FC0121FC
:10075000082000F021FC10208DF80F008002ADF879
:100760000C0003208DF80E0003A91448FFF7A6FE25
:1007700028208DF80F004FF40040ADF80C00032046
:100780008DF80E0003A90D48FFF798FE0C4800F005
:10079000F6FD0020ADF80600ADF802004EF65F2031
:1007A000ADF804004720ADF8000000208DF80800E7
:1007B0006946034800F0D8FE1FBD0000000C014050
:1007C000002C014000BFFEE710B50446002C0BDDF5
:1007D00010211248FFF708FF20211048FFF702FF01
:1007E000A0B200F0B5FB18E05CB910210B48FFF790
:1007F000FBFE20210948FFF7F7FEA0B200F0A8FB9E
:100800000BE010210548FFF7EDFE20210348FFF71C
:10081000EBFE614288B200F09BFB10BD0008014076
:100820001CB563486349644B644ACDE900106449D0
:100830006448FFF7E1FE5F480078012875D15C4805
:1008400000780128FAD15E48007801280CD15D4873
:10085000007848B95948007830B9574800780128DD
:1008600002D100F003F9A2E055480078012811D127
:100870005448007870B95148007801280AD14E4890
:100880000078012806D1322000F0C0FE01204E4938
:1008900008708CE04A48007868B94A48007850B936
:1008A0004648007838B944480078012803D14620EA
:1008B00000F0ACFE7BE04248007878B9414800780F
:1008C00001280BD13D480078012807D13A4800782B
:1008D000012803D1502000F099FE68E038480078E4
:1008E000012811D13748007801280DD1334800780C
:1008F00050B931480078012806D1322000F08FFE2F
:1009000001203249087052E02D48007801280DD1AD
:100910002C48007850B92948007838B92648007822
:1009200020B9462000F07BFE41E038E02448007802
:1009300001280ED12348007801280AD11F480078E9
:10094000012806D11C48007818B9502000F067FE35
:100950002DE01B480078012829D11A480078012889
:1009600025D116480078012821D1134800780128A4
:100970001DD115480078012806D1002012490870C1
:100980003C2000F043FE12E01048007801280ED110
:1009900000200E4908703C2000F041FE07E00548A9
:1009A000007820B90248007808B9FFF749FD1CBD5E
:1009B0002B0000202A000020290000202800002011
:1009C00027000020260000202C0000202D00002001
:1009D00008B50121082000F0DFFA0121102000F005
:1009E000DBFA48208DF803004FF47050ADF800009A
:1009F00003208DF8020069460848FFF75FFD482094
:100A00008DF803004FF44040ADF8000003208DF84E
:100A1000020069460248FFF751FD08BD000C014085
:100A20000010014000BFFEE708B50121042000F0DE
:100A3000B3FA10208DF80300F020ADF80000032079
:100A40008DF8020069460348FFF738FD00F0F2F91F
:100A500008BD00000008014010B56FF03100FFF73D
:100A6000B3FE6FF0310000F011FB10BD10B528206F
:100A7000FFF7AAFE282000F009FB10BD7047000018
:100A800070B5002100230F22C47804B3154C2468EC
:100A900004F4E064C4F5E064210AC1F10403CA402F
:100AA000447804FA03F184781440214309010E4C80
:100AB0000678A155047804F01F050124AC400578A0
:100AC0006D11AD0005F1E025C5F8004109E004789D
:100AD00004F01F050124AC40044D0678761145F85A
:100AE000264070BD0CED00E000E400E080E100E095
:100AF00002490143024A1160704700000000FA05F4
:100B00000CED00E070B500240EE00021204600F05E
:100B1000F0F8002504E0002000F07CF9681CC5B264
:100B2000802DF8DB601CC4B2082CEEDB70BD000029
:100B300008B50121082000F02FFA14208DF80300D9
:100B400003208DF802004FF48070ADF80000694674
:100B50000A48FFF7B3FC4FF40070ADF80000694697
:100B60000648FFF7ABFC012211020448FFF73EFDE7
:100B7000012251020148FFF739FD08BD000C014078
:100B800070B50546002415E08020204100EA0502EA
:100B90004FF400710E48FFF729FD012211020C48A5
:100BA000FFF724FD00224FF480710948FFF71EFD76
:100BB000601CC4B2082CE7DB012211020448FFF7D5
:100BC00015FD00224FF480710148FFF70FFD70BD45
:100BD000000C014010B5012251020A48FFF706FD42
:100BE000012211020748FFF701FD00224FF40071B6
:100BF0000448FFF7FBFC00224FF480710148FFF727
:100C0000F5FC10BD000C014010B500224FF400713E
:100C10000648FFF7EBFC012211020448FFF7E6FC4F
:100C2000012251020148FFF7E1FC10BD000C014018
:100C300070B5002406E0002500E06D1CB5F57A7F54
:100C4000FBD3641CB4F57A7FF5D3FFF771FFAE20B8
:100C500000F0D0F8D52000F0CDF8802000F0CAF8E0
:100C6000A82000F0C7F83F2000F0C4F8D32000F01F
:100C7000C1F8002000F0BEF8402000F0BBF8A12031
:100C800000F0B8F8C82000F0B5F8DA2000F0B2F8AB
:100C9000122000F0AFF8812000F0ACF8CF2000F077
:100CA000A9F8D92000F0A6F8F12000F0A3F8DB2085
:100CB00000F0A0F8302000F09DF8A42000F09AF891
:100CC000A62000F097F88D2000F094F8142000F092
:100CD00091F8AF2000F08EF8FFF714FF70BD10B54B
:100CE0000246012000E050430B1EA1F10101FAD1A0
:100CF00010BD70B505460C4645F0B00000F07AF81E
:100D0000102141EA141000F075F804F00F0000F013
:100D100071F870BD2DE9F04105460E461746721E6A
:100D2000D206110E6A1E5206100EFFF7E2FF0024D3
:100D300009E0A7F12001134A02EB0111085D00F060
:100D400069F8601CC4B2082CF3DB721ED206110EC7
:100D50006A1E012303EB4202D0B2FFF7CAFF002450
:100D60000BE0A7F12001074A02EB011204F1080190
:100D7000505C00F04FF8601CC4B2082CF1DBBDE8F9
:100D8000F08100002A2400082DE9F04780460E4635
:100D900017461D46002415E0281B411E0A20FFF7B8
:100DA0009EFFB7FBF0F00A21B0FBF1F201FB12004D
:100DB00000F130093019C1B24A464046FFF7AAFF98
:100DC000601CC4B2AC42E7DBBDE8F0872DE9F0411E
:100DD00007460E461546002407E02A5D3019C1B2C9
:100DE0003846FFF797FF601CC4B2285D0028F4D195
:100DF000BDE8F08110B50446FFF7ECFE7820FFF760
:100E0000BFFE0020FFF7BCFE2046FFF7B9FEFFF74C
:100E1000FBFE10BD10B50446FFF7DCFE7820FFF79F
:100E2000AFFE4020FFF7ACFE2046FFF7A9FEFFF71C
:100E3000EBFE10BD00B589B00121084600F09CF81A
:100E40000121022000F098F80121042000F0A4F80C
:100E50000121082000F0A0F818208DF823000320BD
:100E6000ADF820008DF8220008A93248FFF726FBD4
:100E700018208DF823000220ADF8200003208DF803
:100E8000220008A92C48FFF719FB4FF0804000F022
:100E900076FA2A4800F073FA0020ADF81A00ADF88F
:100EA00016006320ADF818002320ADF814000020D0
:100EB0008DF81C0005A94FF0804000F055FB002084
:100EC000ADF81A00ADF8160044F61F60ADF8180032
:100ED0004720ADF8140000208DF81C0005A9174824
:100EE00000F042FB01A800F02DFB6020ADF80400EB
:100EF0000020ADF80C000120ADF806000020ADF890
:100F00000A0001A94FF0804000F040FA01A94FF01B
:100F1000804000F087FA01A9084800F0D5FA0121C5
:100F2000880700F01DFA0121044800F019FA09B001
:100F300000BD000000080140000C0140000400401A
:100F400010B5044621464FF0804000F005FB10BD6F
:100F500010B5044621464FF0804000F0FFFA10BD66
:100F600010B504462146024800F0FAFA10BD000010
:100F7000000400407047000029B1064AD2690243CC
:100F8000044BDA6104E0034AD2698243014BDA611F
:100F9000704700000010024029B1064A92690243DE
:100FA000044B9A6104E0034A92698243014B9A61BF
:100FB000704700000010024030B5002100220024DC
:100FC00000232D4D6D6805F00C0121B1042905D0D9
:100FD000082923D105E0294D056022E0274D056051
:100FE0001FE0254D6D6805F47012234D6D6805F402
:100FF0008034022505EB92421CB9214D5543056012
:101000000BE01D4D6D6805F400351DB11C4D5543B9
:10101000056002E0194D5543056002E0174D05607B
:1010200000BF00BF144D6D6805F0F0010909154DB2
:101030006B5C0568DD4045600F4D6D6805F4E0614F
:10104000090A104D6B5C4568DD4085600A4D6D688E
:1010500005F46051C90A0B4D6B5C4568DD40C56005
:10106000054D6D6805F44041890B074D6B5CC56803
:10107000B5FBF3F5056130BD0010024000127A00A7
:1010800000093D00000000201000002010B50446BB
:10109000002C0BDD40211248FFF7A6FA80211048F2
:1010A000FFF7A0FAA0B2FFF74BFF18E05CB94021B0
:1010B0000B48FFF799FA80210948FFF795FAA0B28B
:1010C000FFF73EFF0BE040210548FFF78BFA802138
:1010D0000348FFF789FA614288B2FFF731FF10BD7C
:1010E0000008014070470000014800787047000088
:1010F0001400002005480078012804D1002003498D
:101100000870012070470020FCE700001500002057
:1011100000B587B001218803FFF73EFF01210420BD
:10112000FFF73AFF18208DF81B004FF40070ADF860
:10113000180003208DF81A0006A92148FFF7BEF910
:1011400048208DF81B004FF48060ADF81800032094
:101150008DF81A0006A91A48FFF7B0F94FF4165097
:1011600002900020ADF814000C20ADF81200002011
:10117000ADF81000ADF80E00ADF80C0002A9114852
:1011800000F0DCFA012240F225510E4800F0B1FADD
:101190004FF4A060FFF7ACFC25208DF8040001207F
:1011A0008DF807008DF805008DF8060001A8FFF7FF
:1011B00067FC0121034800F066FA07B000BD00009B
:1011C000000801400038014010B5FFF733FE10BDA4
:1011D0002DE9F04104460A49204600F0CFFE804642
:1011E000084900F0E1FF0746074900F059FE0646AE
:1011F00000F0BAFF85B22846FFF7B2FEBDE8F081E5
:10120000000034430000FA440000FA4310B500F037
:1012100001F810BD0CB50020019000903348006823
:1012200040F480303149086000BF3048006800F465
:10123000003000900198401C0190009818B9019866
:10124000B0F5A06FF1D12948006800F4003010B16A
:101250000120009001E0002000900098012843D177
:101260002348006840F010002149086008460068E3
:1012700020F0030008600846006840F002000860A3
:101280001A4840681949486008464068486008465E
:10129000406840F4806048600846406820F47C1054
:1012A00048600846406840F4E81048600846006816
:1012B00040F08070086000BF0C48006800F00070CB
:1012C0000028F9D00948406820F003000749486029
:1012D0000846406840F00200486000BF034840688C
:1012E00000F00C000828F9D10CBD000000100240ED
:1012F0000020024010B5FFF797FB10BD70470000BB
:1013000010B51348006840F0010011490860084614
:101310004068104908400E494860084600680E4978
:1013200008400B4908600846006820F480200860E7
:101330000846406820F4FE0048604FF41F008860B3
:10134000FFF764FF4FF000600449086010BD000023
:10135000001002400000FFF8FFFFF6FE08ED00E07D
:1013600021B1028842F00102028004E002884FF6B7
:10137000FE731A40028070470146888C70470189CD
:101380004FF6F872114001817047000070B50024DB
:1013900000220023058C4FF6FE7635400584028C32
:1013A0008388048B4FF68F752C40B51E2C400D881A
:1013B0002C43751E2A400D892A434D882A43144D1B
:1013C000A8420BD0134DA84208D0134DA84205D017
:1013D000124DA84202D0124DA84213D14FF6F77514
:1013E0002A404D892A434FF6FB752A408D882A43AF
:1013F0004FF6FF652B404FF6FF552B408D892B4351
:10140000CD892B4383800483CD888586028470BD7B
:10141000002C0140003401400040014000440140E4
:101420000048014070B5002400220023058C4FF6CF
:10143000EF7635400584028C8388048B48F6FF756F
:101440002C404FF6FF452C400D884FF6FF7606EAFC
:1014500005252C434FF6DF752A400D8906EA051550
:101460002A434D8806EA05152A43154DA84202D0A5
:10147000144DA8421DD14FF67F752A404D894FF675
:10148000FF7606EA05152A434FF6BF752A408D8878
:1014900006EA05152A434FF6FF352B404FF2FF753C
:1014A0002B408D8906EA85052B43CD8906EA850503
:1014B0002B4383800483CD880587028470BD0000A0
:1014C000002C01400034014070B5002200230024AC
:1014D000058C4EF6FF7635400584038C8488828B1C
:1014E00048F6FF752A404FF6FF452A400D884FF613
:1014F000FF7606EA05252A434DF6FF752B400D8938
:1015000006EA05352B434D8806EA05352B430B4D7E
:10151000A84202D00A4DA84208D14BF6FF752C40D4
:101520008D894FF6FF7606EA85152C4384808283E9
:10153000CD88A0F84050038470BD0000002C01400D
:10154000003401400021018041808180C1800181FF
:1015500041818181C18170478186704701877047D1
:10156000A0F8401070470000002202881D4B9842EE
:101570000ED01D4B98420BD0B0F1804F08D01B4BC2
:10158000984205D01A4B984202D01A4B984204D187
:101590004FF68F731A404B881A43174B984207D067
:1015A000164B984204D04FF6FF431A40CB881A439B
:1015B00002808B8883850B8803850A4B98420BD069
:1015C000094B984208D00E4B984205D00D4B9842DB
:1015D00002D00D4B984201D10B7A038601238382FE
:1015E00070470000002C014000340140000400401E
:1015F00000080040000C00400010004000140040B3
:1016000000400140004401400048014010B504463C
:101610000020FFF7D9F82046FFF738FD10BD10B5C0
:1016200004462046FFF7D0F80020FFF72FFD10BD3D
:1016300010B540F22551094800F031F801280CD1CD
:10164000064800F0E7F806490870012005490870CF
:1016500040F22551014800F007F810BD0038014064
:10166000140000201500002010B50022002340F6D1
:101670006A14A14200D100BF0A1201249440A3B20F
:10168000DC43048010BD21B1828942F40052828182
:1016900004E082894DF6FF731A408281704770B56D
:1016A0000246002400230025002040F66A16B142BD
:1016B00000D100BFC1F3421501F01F03012606FA55
:1016C00003F3012D02D19689334006E0022D02D1A9
:1016D000168A334001E0968A33400C12012606FA3E
:1016E00004F41688344013B10CB1012000E000204E
:1016F00070BDF0B50346002400260025002040F60A
:101700006A17B94200D100BF1846C1F3421401F074
:101710001F06012707FA06F5012C01D10C3004E061
:10172000022C01D1103000E014301AB107682F43A9
:10173000076002E00768AF430760F0BD2DE9F0479E
:1017400086B005460E460024A24600BFA1460027EB
:10175000B08900B100BF2F462C8A4CF6FF700440C0
:10176000F08804432C82AC894EF6F3100440B08814
:1017700031890843718908430443AC81AC8A4FF630
:10178000FF400440B0890443AC8201A8FFF714FC79
:101790001F48874202D1DDF810A001E0DDF80CA05F
:1017A000A88900F4004040B10AEBCA0000EB0A101F
:1017B00031684900B0FBF1F807E00AEBCA0000EB22
:1017C0000A1031688900B0FBF1F86420B8FBF0F032
:1017D00004012009642101FB1089A88900F400405C
:1017E00040B1322000EBC900B0FBF1F000F007007F
:1017F000044308E0322000EB09106421B0FBF1F053
:1018000000F00F0004432C8106B0BDE8F087000013
:101810000038014001468888C0F30800704700BFC7
:10182000FEE70000FFF704FAFFF764FDFFF770FC26
:10183000FEF788FFFFF7C8FCFFF7CAF84148FFF73B
:10184000C7FC41A201210846FFF7C0FA41A20421CA
:101850000220FFF7BBFA4FF49B70FEF70CFE70E01E
:10186000FFF748FC012803D1FFF73EFC3A49087016
:1018700039480078402802D101203849087036489C
:101880000078412802D1022034490870324800789B
:10189000422802D10320314908702F48007843289C
:1018A00002D104202D4908702B480078442802D129
:1018B00005202A49087028480078452802D10620CA
:1018C0002649087024480078462802D10720234979
:1018D000087021480078472802D108201F49087065
:1018E0001D480078482802D109201C4908701B486F
:1018F00000780A2823D2DFE800F02205080B0E1238
:1019000016191C1FFFF7B2F81AE0FFF7A5F817E049
:10191000FEF796FD14E03220FFF778FE10E032204B
:10192000FFF77DFE0CE0FEF793FD09E0FEF799FD61
:1019300006E0FEF775FF03E0FEF784FC00E000BF61
:1019400000BF8DE70000B44244697374616E636543
:101950003A000000434D00002E0000202F00002020
:1019600021F00042A2F16052B2F5801F01F0004365
:1019700028BFD2F17F6C0BD95FEA001C43EAC20298
:1019800042EB507018BF704728BF20F0010070472D
:10199000B2F5801FBCBF184670474FEA410C1CF5DA
:1019A000001F02D2084600F0C6BC70B500F024FA51
:1019B00000000089FFF7F6BF4FF00040A0F580005F
:1019C000704700002DE9C04130B4DFF8A0C23CEA06
:1019D000111418BF3CEA131400F0EC8081EA0305EF
:1019E0001CEA111444EAD57418BF1CEA131500F060
:1019F000C780A4EB05044FF0004545EAC12145EA44
:101A0000C32341EA505143EA525304F17F7499428F
:101A100004F500344FEAC0204FEAC22208BF9042CA
:101A200000F09C804FEA13650FF24016765D4FEA96
:101A3000134506FB05F7C7F1807706FB07F74FEA6A
:101A4000D737A7FB03687642C8F58038A7FB06CED8
:101A500038BFA8F1010807FB08E64FF0000EA6FB0F
:101A6000028CE6FB03CEDCF1000CCEF1004E38BF59
:101A7000AEF1010EA6FB0C584FF000074FF0000529
:101A8000E6FB0E87A1FB08C6A0FB07CE16EB0E06F1
:101A900045F10005E1FB076515F1E04E7EBFA4F5B9
:101AA00080345FEA46066D4116F1800745F1000576
:101AB0004FEA17274FEA066647EA0567A6F1DE46B2
:101AC000B6F1805F4FEA15251FD9384624F0010C86
:101AD00005EBC471BCF1FE6F01EB0C1102D8F0BC38
:101AE000BDE8008124425CBF01F5801E9EEAC47FF0
:101AF00002D4F0BCBDE80081244238D4F0BCA1F18E
:101B0000C041BDE8004100F0C5B94FEAD22242EA27
:101B100043524FEAD323A7FB02864FEAD02040EA84
:101B2000415007FB03661EEA0E0F4FEAD12105FB69
:101B3000026658BFA6EB0056B6EB00564FEA520EAF
:101B40004EEAC37E18EB0E0E56EB530EBDD518EBC6
:101B500002085E417F1C55F10005B6E74FF4801581
:101B60004FF000074FF000064FF00008ADE7F0BC63
:101B70004FF0000001F1C04101F00041BDE80081DB
:101B800011EA0C1F0CEA131500D00CE013EA0C1F2D
:101B900000F025804FF00000F0BC81EA030101F065
:101BA0000041BDE80081F0BCBDE8004181EA0301CD
:101BB00000F070B9F0BCBDE8004170B500F01CF950
:101BC000097EFC3E00F007B881EA03014FF00000F7
:101BD00001F00041704781EA030100F05BB9F0BCFD
:101BE000BDE800414FF0000021497047FFFDFBF9BF
:101BF000F7F5F4F2F0EEEDEBE9E8E6E4E3E1E0DE40
:101C0000DDDBDAD8D7D5D4D3D1D0CFCDCCCBCAC8B1
:101C1000C7C6C5C4C2C1C0BFBEBDBCBBBAB9B8B7D8
:101C2000B6B5B4B3B2B1B0AFAEADACABAAA9A8A8CB
:101C3000A7A6A5A4A3A3A2A1A09F9F9E9D9C9C9B99
:101C40009A99999897979695959493939291919044
:101C50008F8F8E8E8D8C8C8B8B8A898988888787D5
:101C60008685858484838382828181800000FF074A
:101C70000000F87F10F0004248BF4042B0FA80F305
:101C800010FA03F10AD0C3F11D0303F580634FEA94
:101C9000415002EB035202EBD12170474FF000009C
:101CA00070470000DFF848C170B51CEA111E1EBF66
:101CB0001CEA13159EEA0C0F95EA0C0F00F06F80DA
:101CC00081EA030423EA4C134EEAD47E21EA4C1144
:101CD00041F4801143F48013AE44A1FB024CA0FBFD
:101CE0000365AEF17F7E361955EB0C05A1FB034C65
:101CF0004CF10003A0FB021C16EB0C06654153F1EE
:101D00000003094218BF46F0010613F4007F0BD10F
:101D10004FEA03314FEA0530340341EA155140EAF6
:101D200016506FF003020AE04FEAC3214FEAC520C4
:101D3000F40241EA555140EA56506FF0020202EBBC
:101D40002E4201EB025585EACE710AD05FEA440CBF
:101D500018BF24F0004450F1000041F1000120EAD6
:101D6000D47040F2FE7C624500D270BDA84214BF20
:101D70004FF080444FF04044002E08BF0024BEF1D5
:101D8000806FA8BFA1F1C041BDE8704080F28280A1
:101D90004FF0000001F1C04101F0004170479EEAA0
:101DA0000C0F0CEA131518BF95EA0C0F06D04FF074
:101DB000000081EA030E0EF0004170BD00F01CF837
:101DC0008900013E00F007B800F009B84FEA430C63
:101DD0005FEA5C5C08D081EA030100F05BB84FEA7F
:101DE000410C5FEA5C5CF6D14FF00000014970479E
:101DF0000000FF070000F87F0EF1020E2EF0030E28
:101E00005EF8046B364205D4012A43EB030515F551
:101E1000001F12D8012841EB010C1CF5001F0CD843
:101E20000ED14FEAD17C15F5001F0CEB4C0C0CF1D8
:101E3000020C08BF4CEBD37C04E04FF0080C01E02F
:101E40004FEAD37C0CEB4C0526FA05F606F00706A4
:101E5000B6F1040C06D20EEB860CBDE870404CF0D7
:101E6000010C6047DFE80CF0090B02024FF0004163
:101E70004FF00000A1F5002170BD19461046012861
:101E800051EB010418BFD4F5001484BF002001F009
:101E9000004170BD0808A0F500114FEA31017047FC
:101EA00090EA010F48BF81F0004100F15082421AD0
:101EB0003CBF801A89184FEAD0524FF07F4C1CEA81
:101EC000410FA2EBD15318BF9CEA026F00F03B8098
:101ED0004FF0004C4CEA00204CEA012121FA03FCAF
:101EE00010EB0C0C1ED202F1FF325FEA1C2040EB1B
:101EF000C25038BF70471CF07F0F4FEA400C18BF2C
:101F0000BCF17F4F38BF7047C3F12003994008BF31
:101F100020F00100BCF17F4F38BF7047A0F1C040F6
:101F200000F009BA4FEA3C00000A40EBC25028BF5B
:101F30001CF0FF0F4FEA400CE6D018BFBCF17F4FFA
:101F400038BF7047EAE79CEA026F05D010EA5C0FE1
:101F500008BF00F00040704710B500F0A6F900BFC0
:101F600064FBBE3E401058BFC0F14040491058BF0E
:101F7000C1F140418142EFF3008070474FF47F0C84
:101F80001CEAD0121EBF1CEAD11392EA0C0F93EA8E
:101F90000C0F00F0858090EA010F48BF42F4807278
:101FA00040F4000C41F400002CF07F4120F07F4011
:101FB00000B58142A2EB03020FF2081CACEB504EBD
:101FC000C0F100009EF800E04FEA4E0E00FB0EFC50
:101FD00038BF49004FEA2C1C02F5FA020CFB0EF345
:101FE0004FEACE1E4FEA112C4FEAC1210EEB635E81
:101FF00042EB22420EFB0CFC4FEA1C5300FB031188
:102000004FEA112C4FEA01310EFB0CFC4FEADC4C7D
:1020100000FB0C11C14228BF09184CEB03335DF8DB
:1020200004EB10EB410143EBC250B2F57C0F38BF1B
:10203000704729D512F0F00F1CBF00F1C04000F02E
:1020400000407047008182838485868788898B8CD5
:102050008D8E8F919293959697999A9C9D9FA0A211
:10206000A3A5A7A8AAACAEB0B2B3B5B7B9BCBEC061
:10207000C2C5C7C9CCCED1D4D7D9DCDFE2E6E9EC02
:10208000F0F3F7FAFE0000004FEA400C0CF1807C00
:10209000BCF17E4F28BF7047B0F1C04000F04BB993
:1020A00090EA010F0CEAD11348BF42F480726245F6
:1020B00038BF634507D213F47F0F16D080EA0100C2
:1020C00000F00040704710B500F0EFF8097EFC3ECC
:1020D00000F005B880EA010000F00040704780EA97
:1020E000010000F0004000F026B912F47F0F04BF99
:1020F0000248704780EA010000F01DB90000C07F6F
:1021000050EA010C00F113801CF5000F58BFBCF51C
:10211000000F01D48842704707D710F5000F58BF51
:1021200011F5000F15D488427047894270471CF59D
:10213000000F04D5BCF5000FF7D5814270474FF072
:10214000807C1CEB400F38BF1CEB410F01D2814259
:10215000704710B500F0A9F8922449004FF00050E4
:102160004FF08051FFF7FEBEC10DD1F19E0206DB9C
:102170004FEA002343F0004323FA02F07047004285
:1021800007D54FEA4001B1F1FE4F02D24FF00000F7
:10219000704710B500F089F84992248000207047FC
:1021A0006FEA2000704700004FF47F0C1CEAD01249
:1021B0001EBF1CEAD11392EA0C0F93EA0C0F00F039
:1021C000478090EA010F48BF42F480724FF0004C04
:1021D0004CEA00204CEA012102EB0302A0FB0113B0
:1021E000A2F50002002918BF43F001035B0028BFDD
:1021F0004FEA330342EB22425FEA132C4CEBC2500E
:102200002EBFBCEB436FB2F57C0F70474FEA036CF7
:10221000BCF1004F08BF20F00100B2F57C0F38BFC1
:1022200070470BD582F0FF0212F5803FC8BF7047A0
:1022300000F1C040D8BF00F00040704700F5000C2E
:102240005FEA4C0C48BF7047B0F1C04000F073B873
:1022500090EA010F0CEAD11348BF42F48072624544
:1022600038BF634504D280EA010000F000407047A7
:1022700010B500F01AF800BF8900013E00F007B861
:1022800000F009B85FEA410C5FEA1C6C08D080EAF4
:10229000010000F050B85FEA400C5FEA1C6CF6D118
:1022A0004FF00040A0F5800070470EF1020E2EF0B6
:1022B000030E5EF8044B244204D44FEA4102B2F10B
:1022C0007F4F11D84FEA4003B3F17F4F0CD80ED1A6
:1022D0004FEAD07CB2F17F4F0CEB4C0C0CF1020CAE
:1022E00008BF4CEBD17C04E04FF0080C01E04FEA52
:1022F000D17C0CEB4C0324FA03F404F00704B4F192
:10230000040C06D20EEB840CBDE810404CF0010C1E
:102310006047DFE80CF0070802024FF00040A0F52C
:10232000800010BD0846420018BFD2F1807288BFFD
:1023300000F0004010BDFF2141EAD050C0057047B9
:1023400090EA010F48BF81F000413FF5B0AD421A5D
:1023500004D882F00042A0EB020011444FEAD052B0
:102360004FF07F4C1CEA410FA2EBD15318BF9CEAFF
:10237000026F4AD04FF0004C4CEA00204CEA012199
:1023800021FA03FCB0EB0C0C0FD412F0FE0F36D088
:102390005FEA4C001DD5001240EBC25038BF7047B9
:1023A0001CF03F0F18BF70470BE0A2F101025FEA7B
:1023B0001C2040EBC25038BF70471CF07F0F18BF85
:1023C0007047C3F12003994014BF401E20F0010064
:1023D000704780084FEA122308BF7047B0FA80FCAC
:1023E000A2EB0C02CCF1280C60FA0CF093EA122F4D
:1023F00004BF00EBC25070474FEAC3707047130A26
:102400005FEADC1008BF7047F6E79CEA026F04D071
:1024100010EA5C0F08BF0020704710B5FFF745FFBA
:1024200040DFF63E81F000407047000000000000F1
:1024300000000000000000000000000000F80000A4
:102440000000000000333000000000100C06100CEB
:102450000600000000000000000040C07840C07886
:102460004000043F04043F040400007088FC08306E
:102470000000001820FF211E0000F008F000E01806
:10248000000000211C031E211E0000F008887000BF
:1024900000001E2123241927211010160E00000011
:1024A00000000000000000000000000000E0180430
:1024B0000200000000071820400000020418E0009D
:1024C00000000040201807000000404080F08040DD
:1024D00040000202010F01020200000000F00000B3
:1024E00000000101011F01010100000000000000C7
:1024F000000080B07000000000000000000000003C
:1025000000000001010101010101000000000000C4
:10251000000000303000000000000000000080607B
:102520001804006018060100000000E01008081000
:10253000E000000F102020100F00001010F8000025
:1025400000000020203F20200000007008080888BC
:10255000700000302824222130000030088888488C
:1025600030000018202020110E000000C02010F8BC
:10257000000000070424243F240000F8088888088D
:1025800008000019212020110E0000E01088881892
:102590000000000F112020110E0000380808C83874
:1025A00008000000003F0000000000708808088854
:1025B0007000001C222121221C0000E010080810DD
:1025C000E0000000312222110F00000000C0C00016
:1025D000000000000030300000000000008000001B
:1025E000000000008060000000000000804020101B
:1025F0000800000102040810200040404040404014
:102600004000040404040404040000081020408076
:1026100000000020100804020100007048080808AB
:10262000F0000000003036010000C030C828E8107B
:10263000E0000718272423140B000000C038E00036
:102640000000203C23020227382008F88888887080
:102650000000203F202020110E00C030080808088C
:102660003800071820202010080008F80808081073
:10267000E000203F202020100F0008F88888E8089C
:102680001000203F20202320180008F88888E80840
:102690001000203F200003000000C0300808083868
:1026A000000007182020221E020008F80800000879
:1026B000F808203F210101213F20000808F8080800
:1026C00000000020203F2020000000000808F8083B
:1026D0000800C08080807F00000008F888C02818AB
:1026E0000800203F20012638200008F808000000DC
:1026F0000000203F20202020300008F8F800F8F8E3
:102700000800203F003F003F200008F830C00008CC
:10271000F808203F200007183F00E01008080810C4
:10272000E0000F10202020100F0008F8080808080B
:10273000F000203F210101010000E010080808100E
:10274000E0000F18242438504F0008F88888888843
:102750007000203F2000030C30200070880808081B
:1027600038000038202121221C00180808F8080829
:1027700018000000203F2000000008F808000008B2
:10278000F808001F202020201F000878880000C8BB
:102790003808000007380E010000F80800F80008AB
:1027A000F800033C0700073C0300081868808068B5
:1027B000180820302C03032C30200838C800C838F3
:1027C00008000000203F2000000010080808C8385A
:1027D00008002038262120201800000000FE0202F8
:1027E00002000000007F40404000000C30C00000AC
:1027F0000000000000010638C00000020202FE00D6
:102800000000004040407F0000000000040202027F
:1028100004000000000000000000000000000000B4
:1028200000008080808080808080000202040000A0
:102830000000000000000000000000008080808098
:1028400000000019242222223F2008F80080800086
:102850000000003F112020110E0000000080808049
:102860000000000E11202020110000000080808850
:10287000F800000E112020103F2000008080808092
:102880000000001F222222221300008080F088888E
:1028900088180020203F20200000000080808080D9
:1028A0008000006B94949493600008F8008080800E
:1028B0000000203F210000203F2000809898000069
:1028C00000000020203F2020000000000080989899
:1028D000000000C08080807F000008F80000808039
:1028E0008000203F24022D302000000808F800005E
:1028F00000000020203F2020000080808080808019
:102900008000203F20003F20003F808000808080AA
:102910000000203F210000203F20000080808080B8
:102920000000001F202020201F00808000808000E9
:10293000000080FFA12020110E0000000080808098
:102940008000000E112020A0FF8080808000808009
:10295000800020203F212000010000008080808036
:1029600080000033242424241900008080E080802B
:1029700000000000001F2020000080800000008078
:102980008000001F202020103F20808080000080D9
:10299000808000010E3008060100808000800080E9
:1029A00080800F300C030C300F000080800080808E
:1029B00080000020312E0E312000808080000080B9
:1029C000808080818E701806010000808080808069
:1029D00080000021302C2221300000000000807C8B
:1029E000020200000000003F404000000000FF0025
:1029F000000000000000FF0000000002027C8000D8
:102A000000000040403F00000000000601010202FB
:102A10000404000000000000000000003C2A000840
:102A20000000002030000000280100086C2A000887
:102A30003000002060060000440100080000000093
:102A40000102030401020304060708090204060840
:102A50000000000000000000000000000000000076
:0C2A600000000000000001010000000068
:040000050800018965
:00000001FF
